:100000000C94CA010C94FB010C94FB010C94FB01B1
:100010000C94FB010C94FB010C94FB010C94FB0170
:100020000C94FB010C94FB010C94FB010C94FB0160
:100030000C94FB010C94FB010C94FB010C94FB0150
:100040000C94FB010C94FB010C94FB010C94FB0140
:100050000C94FB010C94FB010C94FB010C94B50671
:100060000C94FB010C9429070C94FF060C94FB01E3
:100070000C94FB010C94FB010C94FB010C94FB0110
:100080000C94FB010C94FB010C94FB010C94FB0100
:100090000C94FB010C94FB010C94FB010C94FB01F0
:1000A0000C94FB010C94FB010C94FB010C94FB01E0
:1000B0000C94FB010C94FB010C94FB010C94FB01D0
:1000C0000C94FB010C94FB010C94FB010C94FB01C0
:1000D0000C94FB010C94FB010C94FB010C94FB01B0
:1000E0000C94FB0118021B020A020E0214025202B7
:1000F0001F02230229022D02310237023B023F0276
:100100005202450249024D020C943B020C94A60592
:100110000C9452020C943F020C9464030C945F07FD
:100120000C94A5050C944D020C94A9030C94310277
:100130000C94E1040C9441030C9429020C944502A4
:100140000C942D020C94F0030C9418020C944902A8
:100150000C940E020C940A020C9414020C94720378
:100160000C940D030C9437020C941F020C94230280
:100170000C941B020C94500300407A10F35A00A018
:10018000724E18090010A5D4E80000E87648170060
:1001900000E40B54020000CA9A3B000000E1F505A0
:1001A000000080969800000040420F000000A086EA
:1001B00001000000102700000000E803000000001C
:1001C0006400000000000A000000000001000000C0
:1001D00000002C76D888DC674F0823DFC1DFAE59DA
:1001E000E1B1B796E5E3E453C63AE651997696E86D
:1001F000E6C28426EB898C9B62ED407C6FFCEFBCF1
:100200009C9F40F2BAA56FA5F490055A2AF75C931B
:100210006B6CF9676DC11BFCE0E40D47FEF520E651
:10022000B500D0ED902E0300943577050080841E34
:10023000080000204E0A000000C80C333333330F8F
:10024000986E12831141EF8D2114893BE65516CF2C
:10025000FEE6DB18D1844B381BF77C1D901DA4BB38
:10026000E424203284725E228100C9F124ECA1E5ED
:100270003D2700002100240027002A002D00300027
:10028000330001010000040107010A0100002200FF
:10029000250028002B002E00310034000201000050
:1002A000050108010B0100002000230026002900A1
:1002B0002C002F003200000100000301060109019B
:1002C00005050505070508080808020202020A0AD2
:1002D00008080404040401010101010101010303F0
:1002E000030303030303040707070C0C0C0C0C0C9B
:1002F0000C0C0202020206060606060606060B0B98
:100300000B0B0B0B0B0B01021020200808102040D8
:1003100010204080020102010804020101020408C9
:100320001020408080402010080402018004020157
:1003300080402010080402010804020101020408A0
:1003400010204080010204081020408000000A0BA9
:1003500002090C0D0E080703040100000000000054
:10036000000000000000000000000000000000008D
:10037000000000000000000012111000000000004A
:10038000000000000000000000000000000000006D
:1003900000005F0711241FBECFEFD1E2DEBFCDBF4B
:1003A00000E00CBF23E0A4E6B2E001C01D92AE3233
:1003B000B207E1F712E0A0E0B2E0ECE1FDE100E01D
:1003C0000BBF02C007900D92A436B107D9F711E018
:1003D000CAECD1E000E006C021970109802FFE01A0
:1003E0000E94590CC93CD10780E00807A9F70E9478
:1003F000AA070C948C0E0C94000090E0FC0131973D
:10040000E231F10508F04EC08827EE58FF4F8F4FBC
:100410000C94590C809180008F7703C080918000EC
:100420008F7D80938000089580918000877FF9CF31
:1004300084B58F7702C084B58F7D84BD0895809187
:10044000B0008F7703C08091B0008F7D8093B000A3
:100450000895809190008F7707C0809190008F7DE4
:1004600003C080919000877F8093900008958091D1
:10047000A0008F7707C08091A0008F7D03C080917E
:10048000A000877F8093A0000895809120018F773E
:1004900007C0809120018F7D03C080912001877F5C
:1004A000809320010895CF93DF93282F30E0F90146
:1004B000E45BFC4F8491F901EA5FFC4FD491F901B0
:1004C000E054FD4FC491CC2391F081110E94FD01B5
:1004D000EC2FF0E0EE0FFF1FEA55FD4FA591B49110
:1004E000EC91ED2381E090E021F480E002C080E017
:1004F00090E0DF91CF9108951F93CF93DF93282F42
:1005000030E0F901E45BFC4F8491F901EA5FFC4FB4
:10051000D491F901E054FD4FC491CC23C9F0162FBA
:1005200081110E94FD01EC2FF0E0EE0FFF1FE45758
:10053000FD4FA591B4918FB7F894111105C09C910E
:10054000ED2FE095E92302C0EC91ED2BEC938FBFEA
:10055000DF91CF911F910895CF93DF9390E0FC013D
:10056000EA5FFC4F2491FC01E054FD4F8491882305
:1005700061F190E0880F991FFC01EE58FD4FC59185
:10058000D491FC01E457FD4FA591B491611109C0CC
:100590009FB7F8948881209582238883EC912E233D
:1005A0000BC0623061F49FB7F8943881822F809538
:1005B00083238883EC912E2B2C939FBF06C08FB78B
:1005C000F894E8812E2B28838FBFDF91CF91089577
:1005D0003FB7F8948091710290917202A0917302DA
:1005E000B091740226B5A89B05C02F3F19F0019663
:1005F000A11DB11D3FBFBA2FA92F982F8827820FA9
:10060000911DA11DB11DBC01CD0142E0660F771FF8
:10061000881F991F4A95D1F70895CF92DF92EF92E4
:10062000FF920F931F93CF93DF936C017A018B019D
:10063000C0E0D0E0CE15DF0589F0D8016D918D01C5
:10064000D601ED91FC910190F081E02DC601199544
:10065000892B11F47E0102C02196ECCFC701DF91F6
:10066000CF911F910F91FF90EF90DF90CF90089561
:10067000FC01448155816081718182E193E00C9499
:100680000D03FC01538D448D252F30E0842F90E025
:10069000821B930B541710F0CF960895019708957D
:1006A000FC01918D828D981761F0828DDF01A80F7A
:1006B000B11D5D968C91928D9F5F9F73928F90E09C
:1006C00008958FEF9FEF0895FC01918D828D98170B
:1006D00031F0828DE80FF11D858D90E008958FEF48
:1006E0009FEF0895FC01918D228D892F90E0805C11
:1006F0009F4F821B91098F739927089585E792E098
:100700000E94720321E0892B09F420E0822F0895D2
:10071000FC01848DDF01A80FB11DA35ABF4F2C919E
:10072000848D90E001968F739927848FA689B7896D
:100730002C93A089B1898C9180648C93938D848D46
:10074000981306C00288F389E02D80818F7D808315
:100750000895EF92FF920F931F93CF93DF93EC01D5
:1007600081E0888F9B8D8C8D981305C0E889F9896D
:10077000808185FD24C0F62E0B8D10E00F5F1F4F8A
:100780000F731127E02E8C8DE8120CC00FB607FCFA
:10079000FACFE889F989808185FFF5CFCE010E94E3
:1007A0008803F1CF8B8DFE01E80FF11DE35AFF4F57
:1007B000F0820B8FEA89FB898081806207C0EE8915
:1007C000FF896083E889F98980818064808381E082
:1007D00090E0DF91CF911F910F91FF90EF900895DE
:1007E000CF93DF93EC01888D8823C9F0EA89FB89D8
:1007F000808185FD05C0A889B9898C9186FD0FC0CF
:100800000FB607FCF5CF808185FFF2CFA889B989A3
:100810008C9185FFEDCFCE010E948803E7CFDF9159
:10082000CF91089580E090E0892B21F00E947E0313
:10083000811125C080E090E0892B41F080E090E0BC
:10084000892B21F00E94000081111CC080E090E003
:10085000892B41F080E090E0892B21F00E9400007C
:10086000811113C080E090E0892BA1F080E090E03E
:10087000892B81F00E94000081110AC008950E9416
:100880000000D8CF0E940000E1CF0E940000EACF14
:100890000C9400000895CF93DF93EC0160E08E810B
:1008A0000E947C0261E08E810E947C0260E08E8169
:1008B0000E947C028BE891E00197F1F7DF91CF91E4
:1008C0000895CF92DF92EF92FF920F931F93CF93F1
:1008D000DF937C016C0187E0C80ED11CC0E0D0E042
:1008E000062F10E0B8010C2E02C0759567950A948A
:1008F000E2F76170F60181916F010E947C022196FE
:10090000C430D10579F7C701DF91CF911F910F91C5
:10091000FF90EF90DF90CF900C944B04CF92DF923A
:10092000EF92FF920F931F93CF93DF93EC01F62E7C
:10093000642F8C810E947C028D818F3F19F060E0D2
:100940000E947C028F850F2D10E084FF25C06E0170
:1009500087E0C80ED11CE12CF12CB8010E2C02C08E
:10096000759567950A94E2F76170F60181916F01C0
:100970000E947C02FFEFEF1AFF0A88E0E816F104FC
:1009800061F7CE01DF91CF911F910F91FF90EF9012
:10099000DF90CF900C944B04B80184E07595679577
:1009A0008A95E1F7CE010E9461046F2DCE01DF919F
:1009B000CF911F910F91FF90EF90DF90CF900C940B
:1009C000610441E00E948E0481E090E0089540E0DF
:1009D0000C948E04643008F063E09091250369174D
:1009E00010F06FEF690FE62FF0E0EE5EFC4F948998
:1009F000682F690F606882E193E00C94E70461E07E
:100A00000E94E7048BE39FE10197F1F70895EF92CD
:100A1000FF920F931F93CF93DF93EC01623018F096
:100A20008F8588608F876B8B1C8A80E48D8B80E13B
:100A30008E8B80E58F8B61E08C810E94AC028D8172
:100A40008F3F19F061E00E94AC0261E08E810E944C
:100A5000AC027E0187E0E80EF11C00E010E08F851B
:100A600084FD03C084E090E002C088E090E00817B5
:100A700019074CF461E0F70181917F010E94AC02FB
:100A80000F5F1F4FECCF8BE39DE00197F1F760E024
:100A90008C810E947C0260E08E810E947C028D81AC
:100AA0008F3F19F060E00E947C026F8564FD1DC0DD
:100AB00063E0CE010E9461040BE416E4C8010197D3
:100AC000F1F763E0CE010E946104C8010197F1F7DC
:100AD00063E0CE010E94610483E592E00197F1F7A3
:100AE00062E0CE010E94610416C06062CE010E94E5
:100AF000E7048BE496E40197F1F76F856062CE011D
:100B00000E94E70483E592E00197F1F76F85606248
:100B1000CE010E94E7046F856062CE010E94E70467
:100B200084E0888B6CE0CE010E94E704CE010E9435
:100B3000FF0482E0898B66E0CE01DF91CF911F91A7
:100B40000F91FF90EF900C94E704089580E090E0FF
:100B50000895009769F0FC0101900020E9F73197B2
:100B6000AF01481B590BBC0182E193E00C940D03CB
:100B700080E090E008950E94770E0F931F93CF932B
:100B8000DF93EC0188819981009729F02A813B81CC
:100B90002617370788F48B016F5F7F4F0E948E0DF9
:100BA000009761F0998388831B830A832C813D81A0
:100BB000232B11F4FC01108281E001C080E0DF9161
:100BC000CF911F910F910895CF93DF93EC0188810E
:100BD0009981009711F00E94F60C198218821D82EB
:100BE0001C821B821A82DF91CF910895EF92FF92AF
:100BF0000F931F93CF93DF93EC01FB0184819581C9
:100C0000E080F1800C811D81E114F104B1F00097C6
:100C1000B9F0080F191FB801CE010E94BD05882345
:100C200061F0288139818C819D81B701820F931FEA
:100C30000E94850E1D830C8303C0CE010E94E40533
:100C4000CE01DF91CF911F910F91FF90EF9008950A
:100C5000EF92FF920F931F93CF93DF93EC011982D2
:100C600018821B821A821D821C826115710521F176
:100C70008B01FB0101900020E9F731977F01E61A13
:100C8000F70AB7010E94BD05811109C0CE01DF91AD
:100C9000CF911F910F91FF90EF900C94E405FD828E
:100CA000EC82B80188819981DF91CF911F910F91DA
:100CB000FF90EF900C94850EDF91CF911F910F91D3
:100CC000FF90EF900895FC01808191810C94F60CC7
:100CD000CF92DF92EF92FF920F931F93CF93DF9308
:100CE000CDB7DEB7A1970FB6F894DEBF0FBECDBF6C
:100CF0007C01CB01BA01F7011182108213821282AA
:100D00001582148242E0420F8E010F5F1F4F0E9436
:100D1000D3096C01009771F0FC0101900020E9F704
:100D200031978F01081B190BB801C7010E94BD053F
:100D3000811104C0C7010E94E40508C0F7011583B2
:100D40000483B601808191810E94850EA1960FB621
:100D5000F894DEBF0FBECDBFDF91CF911F910F91F1
:100D6000FF90EF90DF90CF9008951F920F920FB6F3
:100D70000F9211242F933F938F939F93AF93BF9321
:100D800080916D0290916E02A0916F02B0917002FD
:100D900030916C0223E0230F2D3720F40196A11D22
:100DA000B11D05C026E8230F0296A11DB11D209399
:100DB0006C0280936D0290936E02A0936F02B093C9
:100DC00070028091710290917202A0917302B091B1
:100DD00074020196A11DB11D80937102909372025D
:100DE000A0937302B0937402BF91AF919F918F91C2
:100DF0003F912F910F900FBE0F901F9018951F924B
:100E00000F920FB60F9211240BB60F922F933F93B0
:100E10004F935F936F937F938F939F93AF93BF9302
:100E2000EF93FF9385E792E00E948803FF91EF9193
:100E3000BF91AF919F918F917F916F915F914F91F2
:100E40003F912F910F900BBE0F900FBE0F901F90F0
:100E500018951F920F920FB60F9211240BB60F9296
:100E60002F938F939F93EF93FF93E0918502F091DF
:100E700086028081E0918B02F0918C0282FD12C08B
:100E8000908180918E028F5F8F7320918F028217E5
:100E900051F0E0918E02F0E0EB58FD4F958F80937A
:100EA0008E0201C08081FF91EF919F918F912F91D0
:100EB0000F900BBE0F900FBE0F901F901895E5E797
:100EC000F2E01382128288EE93E0A0E0B0E0848327
:100ED0009583A683B7838AE092E09183808385EC33
:100EE00090E09587848784EC90E09787868780ECF4
:100EF00090E0918B808B81EC90E0938B828B82ECE5
:100F000090E0958B848B86EC90E0978B868B118E8E
:100F1000128E138E148EE2E1F3E0138212828CE1C2
:100F200092E09183808387E084838FEF858388E0DC
:100F3000868386E0878385E0808784E0818783E0FD
:100F400082871386148615861686178661E0CF0180
:100F50000C940705CF93DF93CDB7DEB72C970FB670
:100F6000F894DEBF0FBECDBF789484B5826084BD97
:100F700084B5816084BD85B5826085BD85B581609D
:100F800085BD80916E00816080936E00109281001B
:100F900080918100826080938100809181008160D6
:100FA0008093810080918000816080938000809197
:100FB000B10084608093B1008091B0008160809323
:100FC000B0008091910082608093910080919100A7
:100FD0008160809391008091900081608093900067
:100FE0008091A10082608093A1008091A100816026
:100FF0008093A1008091A00081608093A0008091E7
:101000002101826080932101809121018160809380
:1010100021018091200181608093200180917A00DC
:10102000846080937A0080917A00826080937A0055
:1010300080917A00816080937A0080917A00806844
:1010400080937A001092C10060E082E00E94AC02BE
:1010500062E08EE10E94AC0262E082E193E00E94D5
:10106000070582E193E00E94FF0484E292E00E947F
:10107000A90561E080E00E94EA0482E392E00E9418
:10108000A9050E94E8022B013C0150EDC52E57E056
:10109000D52EE12CF12C0E94E802DC01CB01841951
:1010A0009509A609B709883E9340A105B10558F0F6
:1010B00021E0C21AD108E108F10888EE480E83E069
:1010C000581E611C711CC114D104E104F10419F70C
:1010D00082E193E00E94FF04E0918502F091860294
:1010E00082E08083E0918102F09182021082E0919F
:1010F0008302F09184028FEC808310928D02E09144
:101100008902F0918A0286E08083E0918702F09163
:101110008802808180618083E0918702F09188025B
:10112000808188608083E0918702F09188028081CD
:1011300080688083E0918702F091880280818F7DB2
:10114000808332E0C32ED12CAA24A394B12C8FB774
:10115000F89440906D0250906E0260906F02709013
:1011600070028FBFF12C00E010E082E00E94530279
:10117000019711F4FF24F39482E00E945302892B1B
:1011800011F4F1100CC12FB7F89480916D02909179
:101190006E02A0916F02B09170022FBF8419950961
:1011A000A609B7098D329140A105B105F0F2C80139
:1011B000880F991F800F911F90936702809366029A
:1011C00020916402309165022817390724F4909326
:1011D0006502809364028EE10E94530220916802AE
:1011E00030916902892B09F0A0C0B0926B02A092E5
:1011F0006A022230310521F482E193E00E94FF046B
:1012000060E080E00E94EA0422E045E85BEE61E7EE
:1012100070E4CE0101960E94680660E472E0CE019F
:1012200007960E942806BE016F5F7F4FCE0107968A
:101230000E94F6050E943803CE0107960E946306BD
:10124000CE0101960E94630660E089E00E94EA04F4
:1012500022E045E85BEE61E770E4CE0101960E9472
:10126000680664E472E0CE0107960E942806BE017B
:101270006F5F7F4FCE0107960E94F6050E943803EC
:10128000CE0107960E946306CE0101960E94630676
:1012900061E080E00E94EA0422E045E85BEE61E75D
:1012A00070E4CE0101960E94680668E472E0CE0107
:1012B00007960E942806BE016F5F7F4FCE010796FA
:1012C0000E94F6050E943803CE0107960E9463062D
:1012D000CE0101960E94630661E089E00E94EA0463
:1012E00022E045E85BEE61E770E4CE0101960E94E2
:1012F00068066CE472E0CE0107960E942806BE01E3
:101300006F5F7F4FCE0107960E94F6050E9438035B
:10131000CE0107960E946306CE0101960E946306E5
:10132000B0926902A092680237C0D0926B02C0925C
:101330006A022130310521F482E193E00E94FF042A
:1013400060E080E00E94EA0480E592E00E94A90546
:1013500060E088E00E94EA0485E592E00E94A90529
:1013600061E080E00E94EA04809166029091670249
:10137000875A9D4F0E94A90561E088E00E94EA0417
:101380008091640290916502815A9D4F0E94A90547
:10139000D0926902C09268020E941204D8CE0F5FF8
:1013A0001F4FF12CF0CEEF920F931F93CF93DF934B
:1013B000E80147FD02C034E001C034E1E42F440FEE
:1013C000FF0BF7FF03C0F195E195F109E32E022F22
:1013D0002E2FAE010E94F309CE01DF91CF911F9114
:1013E0000F91EF9008954F925F926F927F929F922C
:1013F000AF92BF92CF92DF92EF92FF920F931F9323
:10140000CF93DF93CDB7DEB729970FB6F894DEBF41
:101410000FBECDBF6A01122FB02E2BE3201720F094
:10142000FF24F394F00E02C0BCE3FB2E0F2D27E047
:10143000AE014F5F5F4F0E94810BAC018981982FF5
:101440009970913031F0E1FC06C0E0FE06C090E2F8
:1014500005C09DE203C09BE201C090E0EE2DE0716B
:1014600083FF3CC0911102C083E001C084E081177A
:1014700018F4212F281B01C020E0E1110BC0F60158
:10148000822F30E2882319F031938150FBCFC20EB6
:10149000D11C20E0992329F0D6019C93F6013196C6
:1014A0006F01C6010396E2FE0AC03EE4D6013C93FA
:1014B00041E411964C93119712963C9306C03EE678
:1014C000F601308341E641833283FC01322F40E252
:1014D000332309F442C041933150FACF82FF44C014
:1014E000911102C083E001C084E0811718F4212F1C
:1014F000281B01C020E0E1110BC0F601822F30E271
:10150000882319F031938150FBCFC20ED11C20E00B
:10151000992329F0D6019C93F60131966F01C601FB
:101520000396E2FE0BC039E4D6013C933EE41196EB
:101530003C93119736E412963C9307C039E6F601C6
:1015400030833EE6318336E63283FC01322F40E2BF
:10155000332319F041933150FBCFFC01E20FF11D11
:1015600010828EEF9FEFB7C0F1E0911101C0F0E063
:101570006F2F70E01416150624F49A012F5F3F4F69
:1015800002C021E030E0260F371FBB2029F06B2D71
:1015900070E06F5F7F4F02C060E070E0260F371F82
:1015A000612F70E0261737071CF4121B212F01C092
:1015B00020E03E2D387159F4D601322F60E23323FA
:1015C00019F06D933150FBCFC20ED11C20E0FF23E8
:1015D00031F0D6019C93B6016F5F7F4F6B01E11133
:1015E0000BC0F601922F30E3992319F031939150FB
:1015F000FBCFC20ED11C20E09F2D940F3A81782F93
:101600007071A72E84FF03C0313309F4915019166D
:1016100024F4993018F098E001C091E0E42F852F70
:1016200057FF02C0E0E080E06E2F782FE0E0F0E0AE
:10163000AEE29A2E3A01691A71082A01461A570A2F
:101640000B2D10E01195019511096F3F8FEF780771
:1016500029F4D6019C92C60101966C0146175707E2
:1016600084F0661677066CF47F01E40CF51CA1E0AB
:10167000B0E0AC0FBD1FEA0EFB1ED7011196BC9067
:1016800002C090E3B92E615071093196C6010196EE
:101690007C016017710724F0D601BC926C01D5CF94
:1016A0006417750741F4363320F4353321F4A11063
:1016B00002C081E3B82EF601B082F701822F90E2DA
:1016C000882319F091938150FBCFF701E20FF11DB0
:1016D000108280E090E029960FB6F894DEBF0FBE2E
:1016E000CDBFDF91CF911F910F91FF90EF90DF90D1
:1016F000CF90BF90AF909F907F906F905F904F90F2
:101700000895283008F027E03327DA01990F311DBA
:1017100087FD916000966105710539F432602E5F96
:101720003D9330E32A95E1F708959F3F30F08038EC
:101730007105610509F03C5F3C5F3D93913008F015
:101740008068911DDF93CF931F930F93FF92EF92C9
:10175000192F987F9695E92F96959695E90FFF2773
:10176000EE52FE4F99273327EE24FF24A701E7010D
:1017700005900894079428F4360FE71EF81E491FB9
:10178000511D660F771F881F991F0694A1F70590BA
:10179000079428F4E70EF81E491F561FC11D770F46
:1017A000881F991F661F0694A1F70590079428F4D7
:1017B000F80E491F561FC71FD11D880F991F661F9E
:1017C000771F0694A1F70590079420F4490F561F40
:1017D000C71FD81F990F661F771F881F0694A9F788
:1017E00084911095177041F0D695C79557954795F8
:1017F000F794E7941A95C1F7E8E7F1E0689415903B
:10180000159135916591959105907FE27395E11859
:10181000F10A430B560BC90BD009C0F7E10CF11EBE
:10182000431F561FC91FD01D7EF4703311F48A95D3
:10183000E6CFE894015030F0080F0AF400270217B1
:1018400008F4202F2395022F7A3328F079E37D9333
:101850002A95E9F710C07D932A9589F60694979505
:101860006795379517951794E118F10A430B560BB6
:10187000C90BD00998F023957E9173957A3308F0BF
:1018800070E37C932013B8F77E9170617D9330F004
:10189000839571E37D9370E32A95E1F71124EF902E
:1018A000FF900F911F91CF91DF91992787FD909520
:1018B0000895EE0FFF1F881F8BBF0790F691E02D54
:1018C0001994CF93DF938230910510F482E090E079
:1018D000E0912C03F0912D0320E030E0C0E0D0E057
:1018E000309711F14081518148175907C0F04817CE
:1018F000590761F482819381209719F09B838A8331
:101900002BC090932D0380932C0326C02115310505
:1019100019F04217530718F49A01BE01DF01EF01D5
:101920000280F381E02DDCCF2115310509F1281B60
:10193000390B2430310590F412968D919C911397B8
:101940006115710521F0FB019383828304C090939C
:101950002D0380932C03FD01329644C0FD01E20F5C
:10196000F31F81939193225031092D933C933AC0F8
:1019700020912A0330912B03232B41F42091020262
:101980003091030230932B0320932A03209100020D
:10199000309101022115310541F42DB73EB7409138
:1019A000040250910502241B350BE0912A03F091AB
:1019B0002B03E217F307A0F42E1B3F0B2817390760
:1019C00078F0AC014E5F5F4F2417350748F04E0F9B
:1019D0005F1F50932B0340932A038193919302C07E
:1019E000E0E0F0E0CF01DF91CF9108950F931F93D6
:1019F000CF93DF93009709F48CC0FC0132971382D8
:101A0000128200912C0310912D030115110581F410
:101A100020813181820F931F20912A0330912B0363
:101A20002817390779F5F0932B03E0932A0371C047
:101A3000D80140E050E0AE17BF0750F412962D9148
:101A40003C911397AD012115310509F1D901F3CF6F
:101A50009D01DA013383228360817181860F971F94
:101A60008217930769F4EC0128813981260F371F0B
:101A70002E5F3F4F318320838A819B8193838283B2
:101A8000452B29F4F0932D03E0932C0342C01396C9
:101A9000FC93EE931297ED01499159919E01240F09
:101AA000351FE217F30771F480819181840F951F30
:101AB000029611969C938E938281938113969C93A8
:101AC0008E931297E0E0F0E0D80112968D919C91F0
:101AD0001397009719F0F8018C01F6CF8D919C9126
:101AE00098012E5F3F4F820F931F20912A03309160
:101AF0002B032817390769F4309729F410922D0326
:101B000010922C0302C01382128210932B030093B5
:101B10002A03DF91CF911F910F9108956F927F92C9
:101B20008F929F92AF92BF92CF92DF92EF92FF92ED
:101B30000F931F93CF93DF93EC01009789F4CB01B0
:101B4000DF91CF911F910F91FF90EF90DF90CF9099
:101B5000BF90AF909F908F907F906F900C94610C8E
:101B6000FC01E60FF71F9C0122503109E217F30731
:101B700008F4ACC0D9010D911C91119706171707F5
:101B8000B0F00530110508F49FC0C801049786170E
:101B9000970708F499C002501109061B170B01930F
:101BA00011936D937C93CF010E94F60C8DC05B0165
:101BB000A01AB10A4C01800E911EA0912C03B09185
:101BC0002D0340E050E0E12CF12C109709F44AC0BD
:101BD000A815B905D1F56D907C901197630182E04D
:101BE000C80ED11CCA14DB0480F1A3014A195B0999
:101BF0006A0182E0C80ED11C1296BC90129713960F
:101C0000AC91B5E0CB16D10440F0B282A3835183EE
:101C10004083D9016D937C930AC00E5F1F4FC301AF
:101C2000800F911FF90191838083EB2DFA2FE1142E
:101C3000F10431F0D7011396FC93EE93129744C050
:101C4000F0932D03E0932C033FC08D919C9111974D
:101C50004817590708F4AC017D0112960D90BC910C
:101C6000A02DB3CF80912A0390912B03881599055D
:101C7000E1F446175707C8F48091000290910102E1
:101C8000009741F48DB79EB7409104025091050230
:101C9000841B950BE817F907C8F4F0932B03E09326
:101CA0002A03F901718360830FC0CB010E94610C8C
:101CB0007C01009759F0A801BE010E947C0ECE0164
:101CC0000E94F60CC70104C0CE0102C080E090E083
:101CD000DF91CF911F910F91FF90EF90DF90CF9008
:101CE000BF90AF909F908F907F906F90089581E00C
:101CF00090E0F8940C948C0EFB01DC0102C0019082
:101D00000D9241505040D8F70895FB01DC0101903D
:0C1D10000D920020E1F70895F894FFCF39
:101D1C0000002E03200000000000A9030D03410366
:101D2C00F00372035003640300000000E1040D0390
:101D3C00A605A5054879706572203720446961674E
:101D4C002E0056657273696F6E20302E302E310066
:101D5C0031733D0032733D0033733D0034733D00ED
:101D6C004D50483D0052543D0052502F4D3D004DBA
:041D7C0061783D004D
:00000001FF
